{
  "contractName": "TodoList",
  "abi": [
    {
      "inputs": [],
      "payable": false,
      "stateMutability": "nonpayable",
      "type": "constructor"
    },
    {
      "anonymous": false,
      "inputs": [
        {
          "indexed": false,
          "internalType": "string",
          "name": "name",
          "type": "string"
        },
        {
          "indexed": false,
          "internalType": "uint256",
          "name": "number",
          "type": "uint256"
        }
      ],
      "name": "TaskCreated",
      "type": "event"
    },
    {
      "anonymous": false,
      "inputs": [
        {
          "indexed": false,
          "internalType": "uint256",
          "name": "number",
          "type": "uint256"
        }
      ],
      "name": "TaskDeleted",
      "type": "event"
    },
    {
      "anonymous": false,
      "inputs": [
        {
          "indexed": false,
          "internalType": "string",
          "name": "name",
          "type": "string"
        },
        {
          "indexed": false,
          "internalType": "uint256",
          "name": "number",
          "type": "uint256"
        },
        {
          "indexed": false,
          "internalType": "bool",
          "name": "value",
          "type": "bool"
        }
      ],
      "name": "TaskUpdated",
      "type": "event"
    },
    {
      "constant": true,
      "inputs": [],
      "name": "taskCount",
      "outputs": [
        {
          "internalType": "uint256",
          "name": "",
          "type": "uint256"
        }
      ],
      "payable": false,
      "stateMutability": "view",
      "type": "function"
    },
    {
      "constant": true,
      "inputs": [
        {
          "internalType": "uint256",
          "name": "",
          "type": "uint256"
        }
      ],
      "name": "todos",
      "outputs": [
        {
          "internalType": "uint256",
          "name": "key",
          "type": "uint256"
        },
        {
          "internalType": "string",
          "name": "name",
          "type": "string"
        },
        {
          "internalType": "bool",
          "name": "complete",
          "type": "bool"
        },
        {
          "internalType": "bool",
          "name": "deleted",
          "type": "bool"
        }
      ],
      "payable": false,
      "stateMutability": "view",
      "type": "function"
    },
    {
      "constant": false,
      "inputs": [
        {
          "internalType": "string",
          "name": "_name",
          "type": "string"
        }
      ],
      "name": "create",
      "outputs": [],
      "payable": false,
      "stateMutability": "nonpayable",
      "type": "function"
    },
    {
      "constant": false,
      "inputs": [
        {
          "internalType": "uint256",
          "name": "_number",
          "type": "uint256"
        }
      ],
      "name": "toggleComplete",
      "outputs": [],
      "payable": false,
      "stateMutability": "nonpayable",
      "type": "function"
    },
    {
      "constant": false,
      "inputs": [
        {
          "internalType": "uint256",
          "name": "_number",
          "type": "uint256"
        }
      ],
      "name": "deleteTask",
      "outputs": [],
      "payable": false,
      "stateMutability": "nonpayable",
      "type": "function"
    },
    {
      "constant": false,
      "inputs": [
        {
          "internalType": "uint256",
          "name": "_number",
          "type": "uint256"
        },
        {
          "internalType": "string",
          "name": "_name",
          "type": "string"
        }
      ],
      "name": "updateTask",
      "outputs": [],
      "payable": false,
      "stateMutability": "nonpayable",
      "type": "function"
    }
  ],
  "bytecode": "0x6080604052600080553480156200001557600080fd5b506200005c6040518060400160405280600a81526020017f4669727374205461736b00000000000000000000000000000000000000000000815250620000ee60201b60201c565b620000a26040518060400160405280600b81526020017f5365636f6e64205461736b000000000000000000000000000000000000000000815250620000ee60201b60201c565b620000e86040518060400160405280600a81526020017f5468697264205461736b00000000000000000000000000000000000000000000815250620000ee60201b60201c565b62000303565b6040518060800160405280600054815260200182815260200160001515815260200160001515815250600160008060008154809291906001019190505581526020019081526020016000206000820151816000015560208201518160010190805190602001906200016192919062000254565b5060408201518160020160006101000a81548160ff02191690831515021790555060608201518160020160016101000a81548160ff0219169083151502179055509050507fed1d390c812a65783a09786b88b832ef75bb16882fbc56eeea9bf61a4c1a8ac7816001600054036040518080602001838152602001828103825284818151815260200191508051906020019080838360005b8381101562000215578082015181840152602081019050620001f8565b50505050905090810190601f168015620002435780820380516001836020036101000a031916815260200191505b50935050505060405180910390a150565b828054600181600116156101000203166002900490600052602060002090601f016020900481019282601f106200029757805160ff1916838001178555620002c8565b82800160010185558215620002c8579182015b82811115620002c7578251825591602001919060010190620002aa565b5b509050620002d79190620002db565b5090565b6200030091905b80821115620002fc576000816000905550600101620002e2565b5090565b90565b610cef80620003136000396000f3fe608060405234801561001057600080fd5b50600436106100625760003560e01c80630951e5bd14610067578063560f31921461009557806386533f6c146100c3578063b6a46b3b14610188578063b6cb58a514610243578063bc8bc2b414610261575b600080fd5b6100936004803603602081101561007d57600080fd5b8101908080359060200190929190505050610325565b005b6100c1600480360360208110156100ab57600080fd5b810190808035906020019092919050505061057e565b005b610186600480360360408110156100d957600080fd5b81019080803590602001909291908035906020019064010000000081111561010057600080fd5b82018360208201111561011257600080fd5b8035906020019184600183028401116401000000008311171561013457600080fd5b91908080601f016020809104026020016040519081016040528093929190818152602001838380828437600081840152601f19601f820116905080830192505050505050509192919290505050610752565b005b6102416004803603602081101561019e57600080fd5b81019080803590602001906401000000008111156101bb57600080fd5b8201836020820111156101cd57600080fd5b803590602001918460018302840111640100000000831117156101ef57600080fd5b91908080601f016020809104026020016040519081016040528093929190818152602001838380828437600081840152601f19601f8201169050808301925050505050505091929192905050506109a0565b005b61024b610b01565b6040518082815260200191505060405180910390f35b61028d6004803603602081101561027757600080fd5b8101908080359060200190929190505050610b07565b60405180858152602001806020018415151515815260200183151515158152602001828103825285818151815260200191508051906020019080838360005b838110156102e75780820151818401526020810190506102cc565b50505050905090810190601f1680156103145780820380516001836020036101000a031916815260200191505b509550505050505060405180910390f35b61032d610be9565b6001600083815260200190815260200160002060405180608001604052908160008201548152602001600182018054600181600116156101000203166002900480601f0160208091040260200160405190810160405280929190818152602001828054600181600116156101000203166002900480156103ee5780601f106103c3576101008083540402835291602001916103ee565b820191906000526020600020905b8154815290600101906020018083116103d157829003601f168201915b505050505081526020016002820160009054906101000a900460ff161515151581526020016002820160019054906101000a900460ff1615151515815250509050806040015115816040019015159081151581525050806001600084815260200190815260200160002060008201518160000155602082015181600101908051906020019061047e929190610c15565b5060408201518160020160006101000a81548160ff02191690831515021790555060608201518160020160016101000a81548160ff0219169083151502179055509050507febd5cc9af6c9f1b91b8417f79927f152aad6f8e6701dd45fff939312f53dfd528160200151838360400151604051808060200184815260200183151515158152602001828103825285818151815260200191508051906020019080838360005b8381101561053e578082015181840152602081019050610523565b50505050905090810190601f16801561056b5780820380516001836020036101000a031916815260200191505b5094505050505060405180910390a15050565b610586610be9565b6001600083815260200190815260200160002060405180608001604052908160008201548152602001600182018054600181600116156101000203166002900480601f0160208091040260200160405190810160405280929190818152602001828054600181600116156101000203166002900480156106475780601f1061061c57610100808354040283529160200191610647565b820191906000526020600020905b81548152906001019060200180831161062a57829003601f168201915b505050505081526020016002820160009054906101000a900460ff161515151581526020016002820160019054906101000a900460ff1615151515815250509050600181606001901515908115158152505080600160008481526020019081526020016000206000820151816000015560208201518160010190805190602001906106d3929190610c15565b5060408201518160020160006101000a81548160ff02191690831515021790555060608201518160020160016101000a81548160ff0219169083151502179055509050507fd078b251d950cc55c44340be1db732337ef4939a76e1367ee271ad2cb19c46af826040518082815260200191505060405180910390a15050565b61075a610be9565b6001600084815260200190815260200160002060405180608001604052908160008201548152602001600182018054600181600116156101000203166002900480601f01602080910402602001604051908101604052809291908181526020018280546001816001161561010002031660029004801561081b5780601f106107f05761010080835404028352916020019161081b565b820191906000526020600020905b8154815290600101906020018083116107fe57829003601f168201915b505050505081526020016002820160009054906101000a900460ff161515151581526020016002820160019054906101000a900460ff1615151515815250509050818160200181905250806001600085815260200190815260200160002060008201518160000155602082015181600101908051906020019061089f929190610c15565b5060408201518160020160006101000a81548160ff02191690831515021790555060608201518160020160016101000a81548160ff0219169083151502179055509050507febd5cc9af6c9f1b91b8417f79927f152aad6f8e6701dd45fff939312f53dfd528160200151848360400151604051808060200184815260200183151515158152602001828103825285818151815260200191508051906020019080838360005b8381101561095f578082015181840152602081019050610944565b50505050905090810190601f16801561098c5780820380516001836020036101000a031916815260200191505b5094505050505060405180910390a1505050565b604051806080016040528060005481526020018281526020016000151581526020016000151581525060016000806000815480929190600101919050558152602001908152602001600020600082015181600001556020820151816001019080519060200190610a11929190610c15565b5060408201518160020160006101000a81548160ff02191690831515021790555060608201518160020160016101000a81548160ff0219169083151502179055509050507fed1d390c812a65783a09786b88b832ef75bb16882fbc56eeea9bf61a4c1a8ac7816001600054036040518080602001838152602001828103825284818151815260200191508051906020019080838360005b83811015610ac3578082015181840152602081019050610aa8565b50505050905090810190601f168015610af05780820380516001836020036101000a031916815260200191505b50935050505060405180910390a150565b60005481565b6001602052806000526040600020600091509050806000015490806001018054600181600116156101000203166002900480601f016020809104026020016040519081016040528092919081815260200182805460018160011615610100020316600290048015610bb95780601f10610b8e57610100808354040283529160200191610bb9565b820191906000526020600020905b815481529060010190602001808311610b9c57829003601f168201915b5050505050908060020160009054906101000a900460ff16908060020160019054906101000a900460ff16905084565b604051806080016040528060008152602001606081526020016000151581526020016000151581525090565b828054600181600116156101000203166002900490600052602060002090601f016020900481019282601f10610c5657805160ff1916838001178555610c84565b82800160010185558215610c84579182015b82811115610c83578251825591602001919060010190610c68565b5b509050610c919190610c95565b5090565b610cb791905b80821115610cb3576000816000905550600101610c9b565b5090565b9056fea265627a7a72315820bb948a4dc4894a1165cd3a3dc2ae831f6f6f4276a264fe583ab008fec018ab3b64736f6c63430005100032",
  "source": "pragma solidity ^0.5.0;\n\ncontract TodoList {\n    uint256 public taskCount = 0;\n\n    struct Task {\n        uint256 key;\n        string name;\n        bool complete;\n        bool deleted;\n    }\n\n    mapping(uint256 => Task) public todos;\n\n    event TaskCreated(string name, uint256 number);\n\n    event TaskUpdated(string name, uint256 number, bool value);\n\n    event TaskDeleted(uint256 number);\n\n    constructor() public {\n        create(\"First Task\");\n        create(\"Second Task\");\n        create(\"Third Task\");\n    }\n\n    function create(string memory _name) public {\n        todos[taskCount++] = Task(taskCount, _name, false, false);\n        emit TaskCreated(_name, taskCount - 1);\n    }\n\n    function toggleComplete(uint256 _number) public {\n        Task memory task = todos[_number];\n        task.complete = !task.complete;\n        todos[_number] = task;\n        emit TaskUpdated(task.name, _number, task.complete);\n    }\n\n    function deleteTask(uint256 _number) public {\n        Task memory task = todos[_number];\n        task.deleted = true;\n        todos[_number] = task;\n        emit TaskDeleted(_number);\n    }\n\n    function updateTask(uint256 _number, string memory _name) public {\n        Task memory task = todos[_number];\n        task.name = _name;\n        todos[_number] = task;\n        emit TaskUpdated(task.name, _number, task.complete);\n    }\n}\n",
  "sourcePath": "/Users/ikkeshpack/Development/crypto/todolist/contracts/TodoList.sol",
  "compiler": {
    "name": "solc",
    "version": "0.5.16+commit.9c3226ce.Emscripten.clang"
  },
  "schemaVersion": "3.3.2",
  "updatedAt": "2020-12-08T14:38:52.073Z",
  "networkType": "ethereum",
  "devdoc": {
    "methods": {}
  },
  "userdoc": {
    "methods": {}
  }
}